S00F000053455034496F542E73726563ED
S113000046C2000065C2000063C2000061C2000075
S11300105FC200005DC200005BC2000059C2000064
S113002057C2000055C2000053C2000051C2000074
S113003031C500004DC200004BC2000049C200009F
S113004047C2000045C2000043C2000041C2000094
S11300503FC200003DC200003BC2000039C20000A4
S113006037C200000C9415230C94672331C200009E
S11300702FC200002DC200002BC2000029C20000C4
S113008027C2000025C2000023C2000021C20000D4
S11300900C94AB230C94FD231BC200000C94B427D6
S11300A017C2000015C2000013C2000011C20000F4
S11300B00FC200000DC200000BC2000009C2000004
S11300C007C2000005C2000003C200000C944124D2
S11300D00C949324FDC100000C94D7240C9429257E
S11300E0F7C10000BE01BE01BE01F8010002160204
S11300F0BE01BE01F8010002D6274628462846283C
S11301004628462846284628D627462846284628EC
S11301104628462846284628D827462846284628DA
S1130120462846284628462846284628462846285B
S11301304628462846284628D827462846284628BA
S1130140462846284628462846284628462846283B
S1130150462846284628462842284628462846282F
S113016046284628462846280D2846284628462854
S1130170462846284628462846284628462846280B
S11301804628462846284628012846284628462840
S1130190462846284628462825280BE315E10F2E35
S11301A0FBE6EF2EF5E1FF2EF02D80913A15882322
S11301B011F10FB6F8940F92D8011796ED91FC91B6
S11301C01897C085D185CE01029624D380912E152F
S11301D0815080932E1580913A15815080933A1561
S11301E00F900FBE8B8D9C8D89D2CE0187D28091CA
S11301F03A158111DECFF7018081823008F084D373
S11302000E94AB18D2CFCF93DF93CDB7DEB7609700
S11302100FB6F894DEBF0FBECDBFCE0101969A870C
S11302208987812C912CA12CB12C69847A84E0914A
S1130230E515F091E6158081882309F40EC1078045
S1130240F085E02D20803180428053800E94360E5C
S1130250CE0101960E9414186B877C878D879E8738
S11302608981811164C08B859C85AD85BE8582158D
S11302709305A405B50508F444C00E947A0FE091E3
S1130280E515F091E6150780F085E02DA085B18590
S1130290B88BAF87CD010296BDD2EF85F8898689E8
S11302A082FF21C04685578560897189420D531D9F
S11302B0641D751D720161010B851C852D853E85AC
S11302C0CF010E942317882399F0C82CD92CEA2C3B
S11302D0FB2C00E010E0A201910160E08F85988979
S11302E00E94B61705C08E7FAF85B88956968C9349
S11302F0AF85B8895496ED91FC915597CD01199528
S11303009EC020E0B201A1018B859C85AD85BE8590
S1130310481B590B6A0B7B0B8091E1159091E215F8
S113032035D70E947A0F81118AC0EED288C00E940C
S11303307A0F85C0898188230CF481C04E805F8048
S1130340D2011C968D919C911D97892B19F0C201A5
S1130350029660D2CE0108960E9414188B019C016B
S1130360E9810E2E000CFF0BEA30F10508F067C09E
S11303708827EE58FF4F8F4F0C94AF28F2018689DF
S11303808160868BCA80DB80EC80FD804685578542
S1130390608971894C0D5D1D6E1D7F1DC2010E9417
S11303A02317882309F44BC0D2015496ED91FC9194
S11303B05597C2011995F201868982FF40C04A818E
S11303C05B816C817D8186859785A089B1899A013D
S11303D0AB01280F391F4A1F5B1FC82CD92CEA2CEC
S11303E0FB2C00E010E060E0C2010E94B61727C0B9
S11303F0D20156968C9156978E7F56968C931FC039
S1130400F20186898160868B4A815B816C817D8162
S113041046875787608B718B400F511F621F731F74
S113042068017901C2010E94231709C0F20186897B
S113043081FD03C0C20162D102C08E7F868B282D4C
S1130440392D4A2D5B2D662D772D8091E1159091E4
S1130450E21535D581116ECFEACE0E94360ECE015B
S113046001960E9414186B877C878D879E878981EB
S113047081115DCFE091E315F091E415808121E0D5
S1130480811120E0282C392C4A2C5B2C3BCF1124E1
S11304901FBECFEFD1E2DEBFCDBF00E00CBF17E03F
S11304A0A0E0B2E0E6EBFAE500E00BBF02C0079083
S11304B00D92AE35B107D9F727E1AEE5B7E001C03B
S11304C01D92A33BB207E1F70E94B51A0C94592D73
S11304D097CDCF93DF93DC01EAE6F7E001C0F901A1
S11304E0208131812A173B07D0F382819381AF01A8
S11304F0480F591FA417B50749F412964D915C9102
S11305001397840F951F93838283DF0112968D9135
S11305109C911397ED01C80FD91F2C173D07D9F4EF
S11305202091680730916907C217D30781F02A81A7
S11305303B81820F931F13969C938E931297C081D5
S1130540D1818881998111969C938E9307C01196CD
S1130550DC93CE9303C011963C932E93AE17BF0742
S113056011F0B183A083DF91CF910895CF92DF92F0
S1130570EF92FF920F931F93CF93DF93EC010E94AE
S1130580360E8091680790916907892B41F5EAE658
S1130590F7E0AEE6B7E0B183A08313821282E6E10E
S11305A0F5E1F0936907E0936807138212821182E0
S11305B0108288EA9DE013969C938E931297ED9394
S11305C0FC939093650780936407909367078093E7
S11305D0660780E090E890935F0780935E07E09061
S11305E05E07F0905F07C7018C239D23892B09F0D8
S11305F075C0209709F475C09E012C5F3F4FC21748
S1130600D30708F06EC02115310509F467C00091C5
S11306106607109167070217130708F45FC0C091BB
S11306206A07D0916B07EAE6F7E002C0FE01EC012D
S11306308A819B818217930720F48881998100978E
S1130640A9F78091680790916907C817D90709F439
S113065045C0C080D18084E0C80ED11C88819981B6
S1130660918380834A815B81421B530B493051053E
S113067048F0CE01820F931FFC01538342833B83D6
S11306802A8327DF8A819B81081B190B1093670734
S113069000936607209164073091650702171307DA
S11306A020F41093650700936407E82AF92AFB8273
S11306B0EA821982188280916207909163070196F9
S11306C090936307809362070E947A0FC114D10448
S11306D059F40E94B118C12CD12C06C00E947A0F83
S11306E0F8CF0E947A0FF5CFC601DF91CF911F9109
S11306F00F91FF90EF90DF90CF900895CF93DF9309
S1130700009799F1FC0134972281338140915E076F
S113071050915F07B90164237523672B31F1608120
S11307207181672B11F5EF014095509524233523F2
S1130730338322830E94360E209166073091670727
S11307408A819B81820F931F90936707809366072A
S1130750CE01BFDE8091600790916107019690936E
S11307606107809360070E947A0FDF91CF9108950B
S1130770FC010396928381834FEF5FEFBA014383B9
S113078054836583768390878783928781871082D9
S11307900895FC011386128608950F931F93CF9337
S11307A0DF93EB01088119812A813B810F3F4FEFD1
S11307B014072407340721F4FC01A185B28511C074
S11307C0DC01139601C0DF011496ED91FC9115979D
S11307D04081518162817381041715072607370709
S11307E090F71496ED91FC911597FD83EC83D783D4
S11307F0C683BF83AE831596DC93CE9314979B87F1
S11308008A87FC0120812F5F2083DF91CF911F9184
S11308100F910895CF93DF93FC01A285B385C48122
S1130820D581868197819F838E83C681D781848178
S113083095819D838C8311968D919C911297E817D5
S1130840F90731F48681978112969C938E931197C0
S1130850138612868C9181508C938C91DF91CF9169
S11308600895FC016083319770833197108231972A
S11308701082319720E820833197108231971082BB
S113088031971082779740833197508386970895E4
S1130890A89590EC88E10FB6F894A8958093600031
S11308A00FBE90936000A091D915B091DA15CD9147
S11308B0CDBFDD91DEBFFF91EF91DF91CF91BF916D
S11308C0AF919F918F917F916F915F914F913F91E4
S11308D02F911F910F91FF90EF90DF90CF90BF90D9
S11308E0AF909F908F907F906F905F904F903F90CC
S11308F02F901F900F900CBE0F900BBE0F900FBE49
S11309000F90089581E008950F920FB6F8940F9216
S11309100BB60F920CB60F921F9211242F923F9296
S11309204F925F926F927F928F929F92AF92BF92FB
S1130930CF92DF92EF92FF920F931F932F933F93E7
S11309404F935F936F937F938F939F93AF93BF93D3
S1130950CF93DF93EF93FF93A091D915B091DA155C
S11309600DB60D920EB60D920E94E310A091D9150A
S1130970B091DA15CD91CDBFDD91DEBFFF91EF913E
S1130980DF91CF91BF91AF919F918F917F916F91A3
S11309905F914F913F912F911F910F91FF90EF9095
S11309A0DF90CF90BF90AF909F908F907F906F908B
S11309B05F904F903F902F901F900F900CBE0F9020
S11309C00BBE0F900FBE0F9008950F920FB6F894C0
S11309D00F920BB60F920CB60F921F9211242F9206
S11309E03F924F925F926F927F928F929F92AF92BB
S11309F0BF92CF92DF92EF92FF920F931F932F93A8
S1130A003F934F935F936F937F938F939F93AF9392
S1130A10BF93CF93DF93EF93FF93A091D915B09138
S1130A20DA150DB60D920EB60D9213BE0E944A0E43
S1130A3081110E94E310A091D915B091DA15CD91DE
S1130A40CDBFDD91DEBFFF91EF91DF91CF91BF91DB
S1130A50AF919F918F917F916F915F914F913F9152
S1130A602F911F910F91FF90EF90DF90CF90BF9047
S1130A70AF909F908F907F906F905F904F903F903A
S1130A802F901F900F900CBE0F900BBE0F900FBEB7
S1130A900F9008959ADF18950FB6F8940F92FC0101
S1130AA0968D0F900FBE81E0911180E008950F9311
S1130AB01F93CF93DF93EC01042F1E8D48A14111A6
S1130AC00CC088819981892B09F042C08C819D8159
S1130AD00E947B131D821C8242C0011117C050E08A
S1130AE08A819B810E94DC2928A18A819B81820FB3
S1130AF0911D9B838A832C813D818217930750F13A
S1130B00888199819B838A8380E029C050E08E810B
S1130B109F810E94DC2988A190E09195819591099B
S1130B202E813F81280F391F3F832E8348815981AD
S1130B302417350730F42C813D81820F931F9F8346
S1130B408E83023049F4112349F0115080E007C02C
S1130B5080E005C080E003C080E001C080E01F5F4A
S1130B601E8FDF91CF911F910F910895FC0140A139
S1130B704423A9F050E026813781240F351F3783A1
S1130B802683848195812817390720F080819181FB
S1130B9097838683CB01668177810C94DC29089541
S1130BA0EF92FF920F931F93CF938C010FB6F8949B
S1130BB00F92FC01C2A11C16ACF48389811106C0FA
S1130BC011C0F8018389811105C00CC07801F3E1DB
S1130BD0EF0EF11CC7010E94AD1181110E94DD12BC
S1130BE0C15079F78FEFF80182A30F900FBE0FB6B3
S1130BF0F8940F92C1A11C16ACF48085811106C033
S1130C0011C0F8018085811105C00CC07801F8E09D
S1130C10EF0EF11CC7010E94AD1181110E94DD127B
S1130C20C15079F78FEFF80181A30F900FBECF91D8
S1130C301F910F91FF90EF900895CF93DF93EC01F4
S1130C400FB6F8940F92E881F9818F8D28A190E076
S1130C5030E0829FA001839F500D929F500D11247C
S1130C604E0F5F1F5D834C831E8EFB83EA830197C7
S1130C70829FA001839F500D929F500D1124CF019C
S1130C80840F951F9F838E838FEF89A38AA361119D
S1130C900BC08885882371F0CE0108960E94AD119F
S1130CA0882341F031DE06C0CE01089661DDCE0115
S1130CB043965EDD0F900FBE81E0DF91CF910895E2
S1130CC00F931F93CF93DF93082F162F869FC00196
S1130CD0112483964BDCEC01009769F0111103C0D9
S1130CE09983888303C08396998388830F8F18A37D
S1130CF061E0CE01A2DFCE01DF91CF911F910F9170
S1130D0008959F92AF92BF92CF92DF92EF92FF929B
S1130D100F931F93CF93DF93CDB7DEB729970FB609
S1130D20F894DEBF0FBECDBF7C015B012E833F83F1
S1130D304887598710E0992493946C0188E0C80E81
S1130D40D11C0FB6F8940F92F701968D878D9817E2
S1130D5010F00230B1F4402FB501C701A8DEF7014D
S1130D609389992341F0C70143960E94AD118823CA
S1130D7021F0CADD02C08111C7DD0F900FBE81E0F2
S1130D8051C08E819F81A885B985892B8A2B8B2B95
S1130D9021F40F900FBE80E045C0111105C0CE01B3
S1130DA001960E947312192D0F900FBE5FD70FB6D4
S1130DB0F8940F92F70181A18F3F09F411A2F70172
S1130DC082A18F3F09F412A20F900FBEBE016A5F89
S1130DD07F4FCE0101960E94841281111EC00FB66E
S1130DE0F8940F92F701968D878D0F900FBE98138C
S1130DF00FC04E815F8168857985C6010E945411B8
S1130E00C701CEDE0E947A0F81119BCF7DDD99CF81
S1130E10C701C6DE0E947A0F94CFC701C1DE0E94CB
S1130E207A0F80E029960FB6F894DEBF0FBECDBFCF
S1130E30DF91CF911F910F91FF90EF90DF90CF90B2
S1130E40BF90AF909F900895EF92FF920F931F93DE
S1130E50CF93DF938A01FC01568D378D531710F021
S1130E602230F9F4422F7801EC011AA18E8DCE01C3
S1130E701EDE1F3F81F48B898823A9F0CE0143969F
S1130E800E94AD11882389F0E114F10481F081E01E
S1130E90F70180830DC0FF24F394F10EFAA281E0E0
S1130EA007C080E005C081E003C081E001C081E0AB
S1130EB0DF91CF911F910F91FF90EF9008959F9232
S1130EC0AF92BF92CF92DF92EF92FF920F931F9354
S1130ED0CF93DF93CDB7DEB729970FB6F894DEBF73
S1130EE00FBECDBF8C015B012E833F83488759879A
S1130EF0E12C992493946C0183E1C80ED11C0FB6A4
S1130F00F8940F92F801F68CFF2099F0B501C8010E
S1130F102DDEFA94F801F68E8085882331F0C8011D
S1130F2008960E94AD118111EFDC0F900FBE81E095
S1130F304DC08E819F81A885B985892B8A2B8B2BE7
S1130F4021F40F900FBE80E041C0E11005C0CE0136
S1130F5001960E947312E92C0F900FBE87D60FB62C
S1130F60F8940F92F80181A18F3F09F411A2F801BE
S1130F7082A18F3F09F412A20F900FBEBE016A5FD7
S1130F807F4FCE0101960E948412811116C0C801C0
S1130F9083DD882371F04E815F8168857985C60180
S1130FA00E945411C801FCDDA5D78111A8CFACDC87
S1130FB0A6CFC801F5DD9ED7A2CFC801F1DD9AD72F
S1130FC0C8016ADD882309F49ACF80E029960FB618
S1130FD0F894DEBF0FBECDBFDF91CF911F910F916B
S1130FE0FF90EF90DF90CF90BF90AF909F900895C7
S1130FF0BF92CF92DF92EF92FF920F931F93CF9302
S1131000DF93CDB7DEB729970FB6F894DEBF0FBED6
S1131010CDBF8C014E835F8368877987B12CD12C37
S1131020CC24C3947C0183E1E80EF11C0FB6F89440
S11310300F92D8015E968C915E978823E1F08150DF
S11310405E968C935E978D919C91892B29F40E94D6
S11310503D14F80195838483D80118968C918823D4
S113106031F0C80108960E94AD1181114DDC0F903A
S11310700FBE81E07BC08E819F81A885B985892BB5
S11310808A2B8B2B21F40F900FBE80E06FC0D11000
S113109005C0CE0101960E947312DC2C0F900FBE86
S11310A0E5D50FB6F8940F92F80181A18F3F09F4AA
S11310B011A2D80192968C9192978F3F11F4929637
S11310C01C920F900FBEBE016A5F7F4FCE01019646
S11310D00E948412811125C0C801DEDC8823E9F056
S11310E0F80180819181892B51F40FB6F8940F9205
S11310F0848195810E94F412B82E0F900FBE4E8108
S11311005F8168857985C7010E945411C80148DD53
S1131110F1D681118BCFF8DB89CFC80141DDEAD646
S113112085CFC8013DDDE6D6C801B6DC882309F4C5
S11311307DCFBB20D1F00FB6F8940F92F8018389CC
S1131140882339F0028CF38DE02D80816AE0681BDE
S113115001C060E0D80114968D919C9115970E946E
S1131160D6130F900FBE80E001C080E029960FB621
S1131170F894DEBF0FBECDBFDF91CF911F910F91C9
S1131180FF90EF90DF90CF90BF900895CF93DF93BF
S1131190EC010FB6F8940F9289A18F3F09F419A2BC
S11311A08AA18F3F09F41AA20F900FBE8E8D811170
S11311B004C0CE0143960E946B11CE01F1DCDF9195
S11311C0CF910895FC014481558122813381240FFC
S11311D0351F80819181B901681B790BCB0164179C
S11311E0750710F0841B950B0895AF92BF92CF92B0
S11311F0DF92EF92FF920F931F93CF93DF936C01D3
S11312005B017A01FC01C281D381048115810C1B2D
S11312101D0B4017510708F48A01F6018485958552
S1131220A801B5018C0F9D1F0E94DC290E151F0516
S113123058F4A701401B510BB501600F711FF60153
S1131240848595850E94DC29CE018E0D9F1DF601B3
S1131250248135818217930710F0821B930BF601CA
S113126093838283C701DF91CF911F910F91FF90E8
S1131270EF90DF90CF90BF90AF900895CF92DF9220
S1131280EF92FF920F931F93CF93DF931F921F92BE
S1131290CDB7DEB75A83498321153105C9F06B01F7
S11312A07C01FC01868580FD08C0CA01241735072E
S11312B008F4C9019A83898311C02017310758F0B3
S11312C042E050E0BE016F5F7F4FC7018EDF06C072
S11312D080E090E008C080E090E005C049815A8138
S11312E0B601C70182DF0F900F90DF91CF911F915C
S11312F00F91FF90EF90DF90CF900895AF92BF923F
S1131300CF92DF92EF92FF920F931F93CF93DF93CD
S11313107C015B01E9014217530708F4EA012097B5
S113132079F1F70100811181C480D580C01AD10AF6
S1131330CC15DD0508F46E01F70164857585600F31
S1131340711FA601C5010E94DC29CC16DD0658F4E4
S1131350AE014C195D09F70164857585C5018C0DD5
S11313609D1D0E94DC290C0F1D1FF70184819581AE
S11313700817190710F0081B190BF70111830083D4
S1131380CE01DF91CF911F910F91FF90EF90DF90ED
S1131390CF90BF90AF900895FF920F931F93CF9378
S11313A0DF938B01FF24F394413009F0F12C0115F4
S11313B0110511F401E010E09C01205F3F4F8217FA
S11313C09307B0F4EC012196C901D0D8FC01892B14
S11313D089F08FE0DF011D928A95E9F7CF010F961E
S11313E095878487D583C48317830683F68602C0D2
S11313F0E0E0F0E0CF01DF91CF911F910F91FF90DA
S113140008950FB6F8940F92DC0118962D913C9133
S11314101997232B51F51A962D913C911B97232B49
S113142031F51E962C911E9716964D915C91179747
S113143014966D917C9115971C96ED91FC911D97D6
S11314403FE01D923A95E9F7DC011D96FC93EE937B
S11314501C9715967C936E93149717965C934E93F2
S113146016971E962C9381E003C080E001C080E0B3
S11314700F900FBE0895FC012481358180819181F4
S113148042815381820F931F0197841B950B82170E
S1131490930710F0821B930B08952F923F924F9263
S11314A05F926F927F928F929F92AF92BF92CF92F0
S11314B0DF92EF92FF920F931F93CF93DF93CDB7F9
S11314C0DEB72B970FB6F894DEBF0FBECDBF4C012D
S11314D07B876A871A010E831F8328873987FC015B
S11314E0848195810197268520FF0CC02A01F2E0B2
S11314F04F0E511C8415950550F41E821F821886C8
S1131500198646C02A018417950708F42C018E8198
S11315109F81A885B985892B8A2B8B2B09F438C028
S1131520CE010196CAD70FB6F8940F92C401A3DF77
S11315303C018415950538F560E080E090E00E9458
S113154009170E94E112F401938782870F900FBE5E
S1131550AE80BF80C884D984E12CF12C00E010E077
S1131560980140E050E0BA0180E00E944F14F40179
S113157013861286BE016A5F7F4FCE010196C4D7DF
S1131580882389F202C00F900FBE6114710419F40C
S1131590C40171DF3C0182019301A1016A857B854D
S11315A0C4016CDE6C01892BE9F0C4010BDEF4018B
S11315B02681378182179307A8F058D3F4018085D8
S11315C09185892B71F080859185E12CF12C00E0C7
S11315D020E030E0A90160E00E94F714F4011186D4
S11315E0108688D4C6012B960FB6F894DEBF0FBEC2
S11315F0CDBFDF91CF911F910F91FF90EF90DF90BE
S1131600CF90BF90AF909F908F907F906F905F909E
S11316104F903F902F900895AF92BF92CF92DF9258
S1131620EF92FF920F931F93CF93DF93EC017B0113
S11316305A0169018E8580FF04C08A010E5F1F4F25
S113164001C08A01CE0117DF9C01A501B701CE01BB
S113165015DE5C01892BC1F0CE01B4DD2E813F8102
S11316608217930788F088859985892B69F0888586
S11316709985E12CF12C00E020E030E0A90160E044
S11316800E94EB1519861886C501DF91CF911F9131
S11316900F91FF90EF90DF90CF90BF90AF9008959F
S11316A02F923F924F925F926F927F928F929F926E
S11316B0AF92BF92CF92DF92EF92FF920F931F935C
S11316C0CF93DF931F921F92CDB7DEB74C011B015E
S11316D02A0158016901FC01868580FD03C0612C43
S11316E0712C04C06894662461F8712CA114B104AF
S11316F0C104D10449F10FB6F8940F92C40162DD1C
S11317008C016816790648F060E080E090E00E9461
S1131710091757D7F401918780870F900FBE601681
S11317207106C0F0E12CF12C00E010E0980140E0DB
S113173050E0BA0180E00E944F14F4011186108633
S1131740C40140DD8C0103C0C4013CDD8C01601682
S11317507106C8F561147104C1F0F401C080D18030
S11317609801A301BE016F5F7F4FC401C7DD89816A
S11317709A81061917094816590630F4F401D182E2
S1131780C082412C512C01C02C019801A201B1014D
S1131790C401B4DD6C01892BC1F068D2F4018285E7
S11317A09385892B71F082859385E12CF12C00E0DF
S11317B020E030E0A90160E00E94F714F4011386F0
S11317C0128698D302C0C12CD12CC6010F900F9061
S11317D0DF91CF911F910F91FF90EF90DF90CF9009
S11317E0BF90AF909F908F907F906F905F904F903D
S11317F03F902F900895E0915315F09154158081F6
S113180081110CC08FEF9FEFDC0180931D15909325
S11318101E15A0931F15B09320150895E09153153C
S1131820F09154150780F085E02D80819181A2818B
S1131830B38180931D1590931E15A0931F15B0932B
S1131840201508958F929F92AF92BF92CF92DF920C
S1131850EF92FF92CF93DF936B017C01C42F8090B2
S11318602A1590902B15A0902C15B0902D158091D1
S1131870D9159091DA1502960E940A048FEFC816C2
S1131880D806E806F806B1F5CC23A1F1EFE2F5E1BC
S1131890A181B281C091D915D091DA15BF83AE83ED
S11318A0C091D915D091DA1516968D919C91179700
S11318B0998788871696CD91DC9117978091D915D1
S11318C09091DA1502969D838C838091D91590911D
S11318D0DA15029617969C938E931697A091D915B4
S11318E0B091DA151D96FC93EE931C9780818F5F5F
S11318F080833FC0C80CD91CEA1CFB1CE091D9159D
S1131900F091DA15C282D382E482F582C814D90434
S1131910EA04FB0468F46091D9157091DA1580919A
S11319205115909152156E5F7F4F0E94CD0321C0D7
S11319306091D9157091DA158091531590915415D1
S11319406E5F7F4F0E94CD0380911D1590911E15EF
S1131950A0911F15B0912015C816D906EA06FB06FA
S113196040F4C0921D15D0921E15E0921F15F092FE
S11319702015DF91CF91FF90EF90DF90CF90BF9033
S1131980AF909F908F9008954F925F926F927F9245
S11319908F929F92AF92BF92CF92DF92EF92FF927B
S11319A00F931F93CF93DF934C016B015A012901CD
S11319B0CA010E94B6023C01892B09F40DC184E3DB
S11319C090E00E94B602EC01892B99F07C8E6B8E1C
S11319D0A50165EA70E0C3010E94E52981E0A81A27
S11319E0B1088B8D9C8DA80EB91EC114D10429F4A5
S11319F020C0C3010E947E03EFC0D6018C918D8F5D
S1131A008C918823A1F0AE01425E5F4FF6013196BE
S1131A10B0E1CB0ED11CCF012191DA012D93AD01A0
S1131A20DC018C91882319F0CE16DF06A1F71CA6E1
S1131A3001C01D8E0A3008F009E00A8F0DA71EA60A
S1131A406E01B2E0CB0ED11CC6010E94C903CE01C7
S1131A500E960E94C903DB87CA878AE090E0A0E063
S1131A60B0E0801B9109A109B1098E879F87A88BDB
S1131A70B98BDF8BCE8B84E0FE01BF96DF011D9214
S1131A808A95E9F71BAAA201B401C5010E94310499
S1131A9099838883E114F10419F0F701D183C08399
S1131AA00FB6F8940F9280912E158F5F80932E15A8
S1131AB08091D9159091DA15892BD1F5D093DA1547
S1131AC0C093D91580912E15813009F041C00BE6E1
S1131AD015E10F2EF9EDEF2EF5E1FF2EF02DC801E3
S1131AE00E94B803055F1F4F0E151F05C1F780E65E
S1131AF095E10E94B80385E595E10E94B80386E468
S1131B0095E10E94B8038BE395E10E94B8038FE24C
S1131B1095E10E94B80380E695E190935415809373
S1131B20531585E595E1909352158093511510C096
S1131B308091281581110CC0E091D915F091DA1526
S1131B40928D8A8D891720F0D093DA15C093D91518
S1131B50809121158F5F80932115EA8D809129153D
S1131B608E1710F4E09329158BE08E9FF001112459
S1131B70E559FA4E0180F281E02DFF83EE83268140
S1131B80378139872887A681B7811596DC92CE9252
S1131B901497D782C682EA8D8E9FF0011124E559ED
S1131BA0FA4EFD87EC8780818F5F80830F900FBE94
S1131BB080912815882361F0E091D915F091DA1508
S1131BC0928D8A8D981730F40E94840481E005C0B8
S1131BD081E003C081E001C08FEFDF91CF911F91BD
S1131BE00F91FF90EF90DF90CF90BF90AF909F90B8
S1131BF08F907F906F905F904F900895EF92FF9237
S1131C000F930F2EFBE1EF2EF5E1FF2EF02D00E0F8
S1131C1020E030E040EC50E062E472E08DEC90E0D3
S1131C20B3DE8130E9F40E9495178130C9F4F89449
S1131C308FEF9FEFDC0180931D1590931E15A093E9
S1131C401F15B093201581E08093281510922A1552
S1131C5010922B1510922C1510922D150E944804E9
S1131C60809106020F91FF90EF90089580911A15CC
S1131C708F5F80931A1508950FB6F8940F926091B0
S1131C802A1570912B1580912C1590912D150F907C
S1131C900FBE0895CF92DF92EF92FF920F931F939E
S1131CA0CF93DF9380911A15811107C1C0902A1533
S1131CB0D0902B15E0902C15F0902D158FEFC81AAD
S1131CC0D80AE80AF80AC0922A15D0922B15E09295
S1131CD02C15F0922D15C114D104E104F104B1F4D2
S1131CE080915315909154152091511530915215AE
S1131CF03093541520935315909352158093511596
S1131D00809122158F5F8093221575DD80911D15BA
S1131D1090911E15A0911F15B0912015C816D906D3
S1131D20EA06FB0610F480E0B3C080E04BE051E02B
S1131D30E0915315F0915415908191110CC04FEF1F
S1131D405FEFBA0140931D1550931E1560931F1544
S1131D50709320159DC0E0915315F09154150780A0
S1131D60F085E02D0084F185E02D0281138124812A
S1131D703581C016D106E206F30648F400931D151A
S1131D8010931E1520931F153093201581C0A48530
S1131D90B585C681D781208531853F832E83C08553
S1131DA0D185268137813D832C839F012E5F3F4F50
S1131DB011966D917C9112976217730731F46085C7
S1131DC0718512967C936E931197158614869C9157
S1131DD091509C93A08DB18D109709F1C289D3893C
S1131DE0648975897F836E83C489D589628973897F
S1131DF07D836C831196CD91DC911297BF01625F54
S1131E007F4FC617D70731F46489758912967C937E
S1131E106E931197118E108E9C9191509C93A28D6C
S1131E20909129159A1710F4A09329154A9FD0016F
S1131E301124A559BA4E11960D90BC91A02DB783CB
S1131E40A68316966D917C91179771876087169675
S1131E50CD91DC9117973D832C8317963C932E9359
S1131E601697A28D4A9FD0011124A559BA4EB58761
S1131E70A4879C919F5F9C93A091D915B091DA158A
S1131E80228D5A969C91291708F452CF852F50CF52
S1131E90E091D915F091DA15E28D9BE0E99FF0010C
S1131EA01124E559FA4E9081923008F081E0909126
S1131EB023159923B1F081E014C0809124159091E9
S1131EC02515A0912615B09127150196A11DB11DC8
S1131ED08093241590932515A0932615B093271568
S1131EE080E0DF91CF911F910F91FF90EF90DF90F1
S1131EF0CF900895CF92DF92EF92FF920F931F93AA
S1131F00CF93DF930FB6F8940F9280911A158150F6
S1131F1080931A1580911A158111C4C080912E15D1
S1131F2081118BC0C2C0D8011796ED91FC9118970E
S1131F300084F185E02DA08DB18D82899389648917
S1131F407589EC017F836E8384899589628973899D
S1131F50EC017D836C83CF010E9611966D917C917B
S1131F6012976817790731F48489958912969C939E
S1131F708E931197118E108E8C9181508C93A48521
S1131F80B5858681978160857185EC017F836E8339
S1131F908085918566817781EC017D836C83CF0197
S1131FA0029611966D917C9112976817790731F416
S1131FB06085718512967C936E93119715861486AD
S1131FC02C9121502C93A28D209129152A1710F4BD
S1131FD0A09329153A9FD0011124A559BA4E119600
S1131FE00D90BC91A02DB783A68316966D917C911C
S1131FF017977187608716966D917C911797EB01FF
S11320009D838C8317969C938E931697A28D3A9FEB
S1132010D0011124A559BA4EB587A4878C918F5F3E
S11320208C93A091D915B091DA15928D5A968C9112
S1132030981748F04093231506C0E0E0F0E006E46A
S113204015E13BE041E0D8018C9181116CCFEF2B7D
S113205009F0D1DBC0902415D0902515E090261509
S1132060F0902715C114D104E104F10499F0C1E002
S113207011DE8111C0932315B1E0CB1AD108E10818
S1132080F108B1F710922415109225151092261517
S11320901092271580912315882331F00E9484041F
S11320A081E003C080E001C080E00F900FBEDF91AB
S11320B0CF911F910F91FF90EF90DF90CF900895F3
S11320C0CF92DF92EF92FF920F931F93CF93DF9300
S11320D0EC016A017B01CADD00912A1510912B15D0
S11320E020912C1530912D1588819981AA81BB816D
S11320F0AC01BD014C0D5D1D6E1D7F1D0817190738
S11321002A073B07B8F4481759076A077B0790F575
S1132110FF24F394041715072607370708F0F12C5A
S1132120488359836A837B83041715072607370777
S1132130A0F40BC0481759076A077B07A0F00417DF
S113214015072607370778F015C0CB01BA01601BC5
S1132150710B820B930B40E075DBCCDE811110C058
S11321600E9484040DC0488359836A837B83FF24BF
S1132170F394EBCF488359836A837B83F12CEDCFAF
S11321808F2DDF91CF911F910F91FF90EF90DF90F2
S1132190CF900895CF92DF92EF92FF926B017C0172
S11321A0672B682B692B41F061DD40E0C701B60164
S11321B049DBA0DE811102C00E948404FF90EF90ED
S11321C0DF90CF90089580911A15882321F081E043
S11321D080932315089510922315A091D915B091D9
S11321E0DA15E091D915F091DA152D913C91838D92
S11321F0948D8217930758F06091D9157091DA1570
S11322008091D9159091DA15635E7F4FB6D780918E
S11322102915282F30E09BE0899FF0011124E5590E
S1132220FA4E908191110EC04BE08150282F30E07E
S1132230429FF001439FF00D1124E559FA4E90811D
S1132240992399F39BE0929FA001939F500D112431
S1132250DA01A559BA4E1196ED91FC9112970480BA
S1132260F581E02D1296FC93EE93119742595A4E44
S1132270E417F50729F444815581FD015283418314
S11322809BE0929FF001939FF00D1124E559FA4EC3
S11322900180F281E02D208531853093DA15209379
S11322A0D915809329150895CF92DF92EF92FF926A
S11322B06A017B016091D9157091DA15625F7F4FD5
S11322C00E94CD0341E0C701B601BCDAFF90EF9054
S11322D0DF90CF900895CF93DF93FC01CB01BA0137
S11322E0A181B281C091D915D091DA15BB8BAA8B8B
S11322F0C091D915D091DA1516964D915C91179726
S11323005D8B4C8B1696CD91DC9117974091D91526
S11323105091DA15425F5F4F5D834C834091D9152C
S11323205091DA15425F5F4F17965C934E93169760
S1132330A091D915B091DA155996FC93EE9358975C
S113234030813F5F3083222319F06FEF7FEFCB01A1
S1132350422F78DADF91CF910895CF93DF93DC0198
S11323601796ED91FC9118970084F185E02DA08DCE
S1132370B18DC289D389848995899F838E83C489C9
S1132380D589828993899D838C839F01225F3F4FE6
S113239011968D919C9112978217930731F4848939
S11323A0958912969C938E931197118E108E8C9111
S11323B081508C9380911A15811152C0A485B585E2
S11323C0C681D781808591859F838E83C085D18581
S11323D0868197819D838C839F012E5F3F4F119649
S11323E08D919C9112978217930731F48085918582
S11323F012969C938E931197158614868C91815016
S11324008C93A28D809129158A1710F4A093291515
S11324108BE08A9FD0011124A559BA4E11960D90D4
S1132420BC91A02DB783A68316964D915C91179706
S1132430518740871696CD91DC9117973D832C8365
S113244017963C932E931697A28D8A9FD001112440
S1132450A559BA4EB587A4878C918F5F8C931CC005
S113246046E455E1DA011196CD91DC911297D38BB4
S1132470C28B8E819F81958B848B8E819F81DC01A1
S113248015963C932E9314973F832E83518F408F40
S1132490DA018C918F5F8C93A091D915B091DA15E4
S11324A0928D5A968C91891720F481E0809323159C
S11324B001C080E0DF91CF9108950FB6F8940F9298
S11324C020912215FC01208340912A1550912B154F
S11324D060912C1570912D1541835283638374830D
S11324E00F900FBE089520912215FC012083409186
S11324F02A1550912B1560912C1570912D1541833F
S11325005283638374830895CF92DF92EF92FF9294
S11325100F931F93CF93DF93FB010FB6F8940F92A1
S113252040912A1550912B1560912C1570912D1501
S113253000811181228133810F3FAFEF1A072A07EF
S11325403A0779F1EC01C980DA80EB80FC80A09134
S11325502215B881BA1759F04C155D056E057F0533
S113256030F0108211821282138281E01BC04C1958
S11325705D096E097F09401751076207730758F414
S1132580041B150B260B370B008311832283338323
S1132590AADF80E007C0108211821282138281E0D8
S11325A001C080E00F900FBEDF91CF911F910F917A
S11325B0FF90EF90DF90CF90089581E080932315F2
S11325C008958091D9159091DA1508958091281570
S11325D0882331F080911A15882321F080E0089532
S11325E081E0089582E008950F931F93CF93DF93C2
S11325F0FC01892B09F479C0828DA091D915B09181
S1132600DA155A969C91891708F063C04685578558
S113261060897189772394F0A091D915B091DA1566
S11326205A969C914AE050E060E070E0491B5109E1
S11326306109710946875787608B718B2BE0829FF4
S1132640C001112485599A4E2485358528173907E8
S1132650B9F5EF018F010E5F1F4FC8010E940A04F4
S1132660E091D915F091DA15E28DEA8F8091291560
S11326708E1710F4E09329158BE08E9FF00111243E
S1132680E559FA4E0180F281E02DFF83EE83268125
S1132690378139872887A681B78115961C930E93B5
S11326A0149717830683EA8D8E9FF0011124E55950
S11326B0FA4EFD87EC8780818F5F808381E016C0AE
S11326C0A091D915B091DA155A968C91828F81E038
S11326D00DC0A091D915B091DA1581E025A55A96BF
S11326E09C91291718F080E001C080E0DF91CF9120
S11326F01F910F9108950F931F93CF93DF93FC01C4
S1132700892B09F449C086A5815086A7228D95A5F9
S1132710291709F443C0811143C0EF018F010E5FF3
S11327201F4FC8010E940A04EDA5EA8F8AE090E0D9
S1132730A0E0B0E08E1B9109A109B1098E879F87A3
S1132740A88BB98B809129158E1710F4E093291565
S11327508BE08E9FF0011124E559FA4E0180F2813D
S1132760E02DFF83EE832681378139872887A68170
S1132770B78115961C930E93149717830683EA8DDD
S11327808E9FF0011124E559FA4EFD87EC87808174
S11327908F5F808381E005C080E003C080E001C0DA
S11327A080E0DF91CF911F910F9108950F931F93B4
S11327B0CF93DF93FC01892B09F45AC085A58617B2
S11327C008F4862F928D981709F452C026A521305B
S11327D009F04EC0828F46855785608971897723B9
S11327E064F04AE050E060E070E0481B5109610980
S11327F0710946875787608B718B2BE0929FC001CC
S1132800112485599A4E248535852817390781F571
S1132810EF018F010E5F1F4FC8010E940A04EA8D69
S1132820809129158E1710F4E09329158BE08E9F63
S1132830F0011124E559FA4E0180F281E02DFF8365
S1132840EE832681378139872887A681B78115963B
S11328501C930E93149717830683EA8D8E9FF001C1
S11328601124E559FA4EFD87EC8780818F5F8083C0
S1132870DF91CF911F910F9108958091D915909177
S1132880DA15892B39F0E091D915F091DA1586A57E
S11328908F5F86A78091D9159091DA1508954F928C
S11328A05F926F927F92AF92BF92CF92DF92EF923C
S11328B0FF920F931F93CF93DF93280139010FB633
S11328C0F8940F92E091D915F091DA15C82FD0E061
S11328D0EC0FFD1F83A9823079F1E091D915F091B5
S11328E0DA15CE01880F991F880F991FE80FF91F79
S11328F087A590A9A1A9B2A9409550956095709516
S1132900482359236A237B2347A750AB61AB72AB9F
S1132910E091D915F091DA15EC0FFD1F81E083AB3E
S1132920A114B104C104D10439F041E0C601B501D8
S11329300E94220C0E9484040F900FBE0FB6F894DC
S11329400F92E114F104A1F0E091D915F091DA1598
S1132950CE01880F991F880F991FE80FF91F87A5CB
S113296090A9A1A9B2A9F70180839183A283B3831B
S1132970E091D915F091DA15EC0FFD1F83A982308F
S1132980E9F4E091D915F091DA15CE01880F991F79
S1132990880F991FE80FF91F87A590A9A1A9B2A9CB
S11329A04094509460947094482259226A227B2265
S11329B047A650AA61AA72AA81E001C080E02091D2
S11329C0D9153091DA15C20FD31F1BAA0F900FBE71
S11329D0DF91CF911F910F91FF90EF90DF90CF90F7
S11329E0BF90AF907F906F905F904F9008958F92BB
S11329F09F92AF92BF92EF92FF920F93CF93DF9388
S1132A00DC010FB6F8940F92E114F10479F0FC01A3
S1132A1084E0689FE00DF11D112487A490A8A1A86B
S1132A20B2A8F70180829182A282B38270E0FD0194
S1132A30E60FF71F83A992E093AB0230F9F018F484
S1132A40013031F049C0033069F10430B9F144C0B8
S1132A50660F771F660F771FFD01E60FF71F87A428
S1132A6090A8A1A8B2A8BA01A901482959296A299C
S1132A707B2947A750AB61AB72AB2EC0660F771FA3
S1132A80660F771FFD01E60FF71F47A550A961A93F
S1132A9072A94F5F5F4F6F4F7F4F47A750AB61AB3A
S1132AA072AB1AC0660F771F660F771FFD01E60F22
S1132AB0F71F27A730AB41AB52AB0EC0823009F4ED
S1132AC079C0660F771F660F771FFD01E60FF71FAA
S1132AD027A730AB41AB52AB813009F06DC01C96D7
S1132AE0ED91FC911D971696CD91DC911797189650
S1132AF08D919C9119979F838E831896CD91DC912B
S1132B00199716968D919C9117979D838C839D019F
S1132B102E5F3F4F818192818217930731F418967B
S1132B208D919C911997928381831D961C921E927C
S1132B301C978081815080835A96EC915A9780919A
S1132B4029158E1710F4E09329158BE08E9FF00160
S1132B501124E559FA4E0180F281E02D1796FC9379
S1132B60EE9316974681578119965C934E93189766
S1132B70C681D7813D832C83378326835A96EC9173
S1132B805A978E9FF0011124E559FA4E1D96FC9335
S1132B90EE931C9780818F5F8083E091D915F0912B
S1132BA0DA155A969C91828D891740F40E94840408
S1132BB081E005C080E003C081E001C081E00F90A6
S1132BC00FBEDF91CF910F91FF90EF90BF90AF9028
S1132BD09F908F9008958F929F92AF92BF92CF92C1
S1132BE0DF92EF92FF920F93CF93DF93DC01E11416
S1132BF0F10479F0FC0184E0689FE00DF11D1124DB
S1132C0087A490A8A1A8B2A8F70180829182A28289
S1132C10B38270E0FD01E60FF71F83A992E093AB46
S1132C200230F9F018F4013031F049C0033069F191
S1132C300430B9F144C0660F771F660F771FFD019A
S1132C40E60FF71F87A490A8A1A8B2A8BA01A9010A
S1132C50482959296A297B2947A750AB61AB72AB34
S1132C602EC0660F771F660F771FFD01E60FF71F53
S1132C7047A550A961A972A94F5F5F4F6F4F7F4F5E
S1132C8047A750AB61AB72AB1AC0660F771F660FD4
S1132C90771FFD01E60FF71F27A730AB41AB52ABFF
S1132CA00EC0823009F4A4C0660F771F660F771F29
S1132CB0FD01E60FF71F27A730AB41AB52AB8130C4
S1132CC009F098C080911A1581115FC01C96ED918E
S1132CD0FC911D971696CD91DC91179718968D91BE
S1132CE09C9119979F838E831896CD91DC911997A7
S1132CF016968D919C9117979D838C839D012E5FD1
S1132D003F4F818192818217930731F418968D91F8
S1132D109C911997928381831D961C921E921C97F5
S1132D208081815080835A96EC915A97809129151D
S1132D308E1710F4E09329158BE08E9FF001112477
S1132D40E559FA4E0180F281E02D1796FC93EE933B
S1132D5016974681578119965C934E931897C681AE
S1132D60D7813D832C83378326835A96EC915A97D7
S1132D708E9FF0011124E559FA4E1D96FC93EE93B3
S1132D801C9780818F5F808320C046E455E1FA015F
S1132D90C181D2815396DC93CE9352978E819F81C9
S1132DA055969C938E9354972E813F81CD010E9618
S1132DB0F901958384839F838E8359965C934E9304
S1132DC05897FA0180818F5F8083E091D915F09143
S1132DD0DA155A969C91828D891770F4C114D10426
S1132DE019F081E0F601808381E08093231505C00A
S1132DF080E003C081E001C081E0DF91CF910F91B9
S1132E00FF90EF90DF90CF90BF90AF909F908F9006
S1132E100895009721F48091D9159091DA150FB691
S1132E20F8940F9270E0FC01E60FF71F23A92230FB
S1132E3031F4FC01E60FF71F13AA81E001C080E022
S1132E400F900FBE0895CF92DF92EF92FF920F93EF
S1132E501F93FC0142835383648375839387828722
S1132E600417150726073707C0F00C191D092E098A
S1132E703F0986859785A089B189081719072A070C
S1132E803B0700F5BF016E5F7F4F8091E315909182
S1132E90E4150E94CD0380E018C00C151D052E0515
S1132EA03F0528F44C155D056E057F0568F4BF01E8
S1132EB06E5F7F4F8091E5159091E6150E94CD03DA
S1132EC080E003C081E001C081E01F910F91FF9079
S1132ED0EF90DF90CF9008950FB6F8940F92809101
S1132EE0E1159091E215892BE9F482EF95E10E94B6
S1132EF0B80387EE95E10E94B80382EF95E19093C1
S1132F00E6158093E51587EE95E19093E41580939B
S1132F10E31540E067E08AE00E9460069093E215C2
S1132F208093E1150F900FBE0895EF92FF920F93D7
S1132F30D3DF8091E1159091E215892B91F00F2E4A
S1132F40FFEDEF2EF5E1FF2EF02D03E020E030E061
S1132F5040EC50E067E472E083E091E00E94C40C2E
S1132F6001C080E00F91FF90EF9008958F929F929F
S1132F70AF92BF92CF92DF92EF92FF920F931F9383
S1132F80CF93DF93CDB7DEB727970FB6F894DEBFA4
S1132F900FBECDBFE091E115F091E215309781F1BC
S1132FA069832A833B834C835D839F838E8366304E
S1132FB0F4F40CDB823069F400E0A7019601BE0151
S1132FC06F5F7F4F8091E1159091E2150E94810619
S1132FD018C000E020E030E0A901BE016F5F7F4F20
S1132FE08091E1159091E2150E9481060AC020E0CB
S1132FF0A801BE016F5F7F4FCF010E94240701C06B
S113300080E027960FB6F894DEBF0FBECDBFDF91E8
S1133010CF911F910F91FF90EF90DF90CF90BF90D1
S1133020AF909F908F9008952F923F924F925F920E
S11330306F927F928F929F92AF92BF92CF92DF92C4
S1133040EF92FF920F931F93CF93DF931C010E9483
S11330503C0E2B013C018091DB159091DC15A09175
S1133060DD15B091DE15481659066A067B0608F090
S113307053C03BC00780F085E02D80809180A28002
S1133080B380C085D1858E010E5F1F4FC8010E9499
S11330900A04EC89FD89CE0119958E8982FF25C029
S11330A08E859F85A889B989880D991DAA1DBB1D88
S11330B088169906AA06BB0670F48A839B83AC83A0
S11330C0BD83DB87CA87B8018091E5159091E61529
S11330D00E94CD030AC0C12CD12C760100E010E07F
S11330E0A501940160E0CE0141DFE091E515F09186
S11330F0E61580818111BECF8091E3159091E4158E
S11331009093E6158093E515F093E415E093E315A9
S113311081E0F101808302C0F10110824092DB154D
S11331205092DC156092DD157092DE15C301B20178
S1133130DF91CF911F910F91FF90EF90DF90CF908F
S1133140BF90AF909F908F907F906F905F904F90C3
S11331503F902F9008950895279A2F9A08951F9AC3
S11331600895FADF2FEF80E792E0215080409040ED
S1133170E1F700C00000F3DFF5CFEEDF2FEF87EAC1
S113318091E6215080409040E1F700C00000E7DF65
S1133190F5CFCF93DF9300D01F92CDB7DEB78FE486
S11331A092E09F938F930E943B2A81E0F6D562E0E0
S11331B070E080E090E00E94CA1080E0EED566E9FD
S11331C070E080E090E00E94CA10A0D581E00E94E7
S11331D04C26F1D50E9458219F938F9382E792E069
S11331E09F938F930E943B2A64D70E9458219F93F8
S11331F08F9385E892E09F938F930E943B2A83E10B
S113320096E1EBD50E94582103E116E11F930F9339
S11332109F938F938EE992E09F938F930E943B2A12
S1133220C801F7D50E9458219F938F931F930F9342
S113323082EB92E09F938F930E943B2AA80167EC54
S113324072E088EE92E00E9437210E9458219F93F9
S11332508F931F930F9387EC92E09F938F9388EE45
S113326092E09F938F9389EF92E09F938F930E94B4
S11332703B2A0FB6F894DEBF0FBECDBFFDD50E942A
S113328058219F938F938FE293E09F938F930E9493
S11332903B2A81E0EBD60E9458219F938F938EE3C3
S11332A093E09F938F930E943B2A84EF91E0E9D6A9
S11332B0FFD79F938F9381E08F9384EF8F938FE554
S11332C093E09F938F930E943B2A0FB6F894DEBF3E
S11332D00FBECDBF0F2EFAE0EF2EF12CF02D0F2EE6
S11332E0FFE7CF2EF3E0DF2EF02D80E0CBD5182FB3
S11332F0DFD79F938F93FF92EF92DF92CF920E943A
S11333003B2A0F900F900F900F900F900F90183052
S113331009F44CC080E00E94B02666E371E080E0CE
S113332090E00E94CA10F1E0EF1AF108F1F637C0FC
S11333300E948404FDCF4AEB50E060E070E0CE01CF
S113334001960E9460104FEF5FEFBA018091A517BC
S11333509091A6170E94F807CFD0CAD0F7019283A4
S1133360838383E00E94C226B70180E0B4D5A0D74E
S11333709F938F93DF92CF920E943B2A00E020E03C
S113338030E0A90160E070E08091A5179091A61744
S11333900E9481060F900F900F900F90CCCF81E088
S11333A00E94A12680E00E946F26C2CF81E00E9485
S11333B09226EDEFF5E182E0818380830E943C0E4A
S11333C069837A838B839C830F2EFDEFEF2EF5E1C7
S11333D0FF2EF02D0F2EFFE9CF2EF3E0DF2EF02D80
S11333E0AACF0F2EFBEBCF2EF3E0DF2EF02D0F2E06
S11333F0F9EDEF2EF3E0FF2EF02DC8EFD3E031D33B
S1133400282F30E02115310569F02330310551F0C2
S11334101F928F93DF92CF920E943B2A0F900F90BE
S11334200F900F9064E670E080E090E00E94CA1074
S11334302DD3282F30E02115310569F023303105D3
S113344051F01F928F93FF92EF920E943B2A0F90AC
S11334500F900F900F9065E070E080E090E00E9484
S1133460CA104FEF5FEFBA018091A5179091A6178C
S11334700E94F8071CD3162F072FB82EA92E1BD095
S1133480AF92BF920F931F93DF93CF930E943B2A77
S113349000E020E030E0A90160E070E08091A51731
S11334A09091A6170E9481060F900F900F900F9095
S11334B00F900F90A4CF9B01AC016091791670918D
S11334C07A1680917B1690917C1698D06093791629
S11334D070937A1680937B1690937C16809177165E
S11334E090917816019690937816809377160895A4
S11334F0FC01808191810895CF93DF9382E090E075
S11335000E94B602EC01892B39F48FE194E00E9409
S11335104E2A80E090E026C087E494E09F938F9346
S11335200E943B2A6091771670917816072E000C42
S1133530880B990B62D19B01AC0160917916709153
S11335407A1680917B1690917C16BCD020E030E0F6
S113355040E251E4DED11ED1798368830F900F904D
S11335608C2F9D2FDF91CF910895EF92FF920F93AF
S113357041E060E070E08CE290E00E94CC0981B10F
S1133580816881B980E00E948B2560E070E081E071
S1133590C4D30F2EFFE7EF2EF6E1FF2EF02D07E048
S11335A020E030E040EC50E06EE474E081EF99E11B
S11335B00E94C40C0F2EFDE7EF2EF6E1FF2EF02D36
S11335C004E020E030E040EC50E066E674E089EC92
S11335D098E10E94C40C2DD2882339F08AE694E045
S11335E00E944E2A81E090E004C00E94FE0D80E01B
S11335F090E00F91FF90EF9008955058BB27AA27B1
S11336000ED04DC13ED130F043D120F031F49F3F74
S113361011F41EF433C10EF4E095E7FB29C1E92F40
S11336204FD180F3BA17620773078407950718F020
S113363071F49EF567C10EF4E0950B2EBA2FA02D00
S11336400B01B90190010C01CA01A0011124FF274B
S1133650591B99F0593F50F4503E68F11A16F04046
S1133660A22F232F342F4427585FF3CF4695379545
S11336702795A795F0405395C9F77EF41F16BA0B0A
S1133680620B730B840BBAF09150A1F0FF0FBB1FB8
S1133690661F771F881FC2F70EC0BA0F621F731F01
S11336A0841F48F4879577956795B795F7959E3F5E
S11336B008F0B3CF9395880F08F09927EE0F9795EC
S11336C0879508950CD0EBC0E3D040F0DAD030F009
S11336D021F45F3F19F0CCC0511115C1CFC0F0D017
S11336E098F39923C9F35523B1F3951B550BBB27C5
S11336F0AA2762177307840738F09F5F5F4F220F72
S1133700331F441FAA1FA9F333D00E2E3AF0E0E86A
S113371030D091505040E695001CCAF729D0FE2FB6
S113372027D0660F771F881FBB1F26173707480748
S1133730AB07B0E809F0BB0B802DBF01FF279358FE
S11337405F4F2AF09E3F510568F092C0DCC05F3F96
S1133750ECF3983EDCF3869577956795B795F795E6
S11337609F5FC9F7880F911D9695879597F90895DE
S1133770E1E0660F771F881FBB1F6217730784077A
S1133780BA0720F0621B730B840BBA0BEE1F88F789
S1133790E095089504D06894B111B5C0089598D007
S11337A088F09F5790F0B92F9927B751A0F0D1F026
S11337B0660F771F881F991F1AF0BA95C9F712C0B0
S11337C0B13081F09FD0B1E008959CC0672F782F6D
S11337D08827B85F39F0B93FCCF38695779567951C
S11337E0B395D9F73EF490958095709561957F4F88
S11337F08F4F9F4F0895E89409C097FB3EF490952E
S11338008095709561957F4F8F4F9F4F9923A9F0B5
S1133810F92F96E9BB279395F69587957795679544
S1133820B795F111F8CFFAF4BB0F11F460FF1BC088
S11338306F5F7F4F8F4F9F4F16C0882311F096E91B
S113384011C0772321F09EE8872F762F05C06623C9
S113385071F096E8862F70E060E02AF09A95660F82
S1133860771F881FDAF7880F9695879597F908953B
S113387097F99F6780E870E060E008959FEF80EC1F
S1133880089500240A9416161706180609060895C2
S113389000240A9412161306140605060895092E28
S11338A00394000C11F4882352F0BB0F40F4BF2B97
S11338B011F460FF04C06F5F7F4F8F4F9F4F0895D7
S11338C057FD9058440F551F59F05F3F71F04795CD
S11338D0880F97FB991F61F09F3F79F087950895B2
S11338E0121613061406551FF2CF4695F1DF08C0D1
S11338F0161617061806991FF1CF869571056105EE
S113390008940895E894BB2766277727CB0197F995
S113391008950BD0C4CFB5DF28F0BADF18F0952393
S113392009F0A6CFABCF1124EECFCADFA0F3959F49
S1133930D1F3950F50E0551F629FF001729FBB2792
S1133940F00DB11D639FAA27F00DB11DAA1F649F3E
S11339506627B00DA11D661F829F2227B00DA11DF1
S1133960621F739FB00DA11D621F839FA00D611D77
S1133970221F749F3327A00D611D231F849F600D98
S1133980211D822F762F6A2F11249F5750408AF0D1
S1133990E1F088234AF0EE0FFF1FBB1F661F771F5D
S11339A0881F91505040A9F79E3F510570F060CF99
S11339B0AACF5F3FECF3983EDCF386957795679545
S11339C0B795F795E7959F5FC1F7FE2B880F911D7B
S11339D09695879597F908956530F1F4FA018081F9
S11339E08F7390E0982F88272181822B90930A026D
S11339F0809309028281F0E48F9FC0011124FA01AF
S1133A00238126952695822B9093080280930702A2
S1133A1081E0809381160895643051F080E090E451
S1133A20909308028093070290930A0280930902FC
S1133A3008950F931F930CEE1CE120E034E244EF51
S1133A4050E060E087E20E94E4269093831680931E
S1133A50821621E0892B09F020E0822F1F910F911B
S1133A6008958091821690918316009759F040E052
S1133A7060E070E00E943527843031F410928116A2
S1133A8080E0089582E0089583E00895809182168D
S1133A9090918316009739F064E00E948127853065
S1133AA021F083E0089582E0089580E00895609114
S1133AB007027091080280E090E09DDE20E030E093
S1133AC045E253E426DF20E038EF4FE756E4FADD21
S1133AD020E030E040E252E490CD08950F931F932C
S1133AE0CF93DF931F921F92CDB7DEB78C0119825B
S1133AF02DC0E091BB16EC3250F481E08E0F809320
S1133B00BB16F0E0E351F94E8A81808302C0109223
S1133B10BB168A818A30D1F44091BB1650E0FA0179
S1133B20E551F94E1082415051099E012F5F3F4FDC
S1133B306DEE76E18091BE169091BF160E940C0B3B
S1133B40898181110E9484041092BB16BE016E5FAC
S1133B507F4FC8014AD5882361F20F900F90DF91FF
S1133B60CF911F910F9108950F931F93CF93DF93DC
S1133B708C01EB018091BE169091BF160E94010A40
S1133B80B80184E896E10E941C2A209779F0E4E8C1
S1133B90F6E101900020E9F7319780E290E091830B
S1133BA08083BE0184E896E10E94112AE4E8F6E1EC
S1133BB0DF010D900020E9F711978DE09AE011964E
S1133BC09C938E9312961C9201900020E9F73197F2
S1133BD0E458F641AE2F84E896E1AC016A2F809157
S1133BE0C0169091C116ACD4811111C008E215E041
S1133BF020E030E04DE250E067E477E18091BE16CA
S1133C009091BF160E94500B87E497E102C080E0B8
S1133C1090E0DF91CF911F910F9108952F923F92E1
S1133C204F925F926F927F928F929F92AF92BF92C8
S1133C30CF92DF92EF92FF920F931F93CF93DF9374
S1133C405C01FC0101900020E9F731976F01C81A6B
S1133C50D90A5C2C0F2EFBE28F2EF7E09F2EF02D5D
S1133C60E12CF12C4C2C3701F40101811281E80183
S1133C7009900020E9F72197C01BD10B3C2EF9E0F5
S1133C80CF16D10458F0F4012080FEE02F1206C0B4
S1133C90B801C5010E94EC29892B09F5442D35147E
S1133CA008F44C2F50E0B801C5010E94232A892B47
S1133CB049F4F301EE0FFF1FE60DF71DE55DF84F24
S1133CC020800DC08FEFE81AF80AE3E08E0E911CF5
S1133CD0F1E1EF16F10439F66894222424F8822DD8
S1133CE0DF91CF911F910F91FF90EF90DF90CF90D4
S1133CF0BF90AF909F908F907F906F905F904F9008
S1133D003F902F90089530DF89CF08958091BE169B
S1133D109091BF160C94010A08958F929F92AF92CE
S1133D20CF92EF920F931F93CF93C82F8B0141E053
S1133D3060E070E088EC90E00E94CC099093BF169C
S1133D408093BE161093BD160093BC160F2EFEE68C
S1133D508F2EFDE19F2EF02D6894AA24A6F8689476
S1133D60CC24C6F8E12C00E023E040E051EE60E012
S1133D7070E08C2F1ED39093C1168093C016E7E099
S1133D80F1E0808180618083CF911F910F91EF904A
S1133D90CF90AF909F908F900895882331F0E8E002
S1133DA0F1E080818F7E80830895E8E0F1E08081F6
S1133DB080618083089560E070E081EB94E0D4DE5C
S1133DC0E7E4F7E101900020E9F73197E754F74180
S1133DD081E0759708F080E00895CF93DF93EC01BC
S1133DE060E070E082EC94E0BFDEE7E4F7E101908C
S1133DF00020E9F7E855F74139F467E477E1CE01AB
S1133E000E941C2A80E002C0188281E0DF91CF91D9
S1133E100895FC0101900020E9F79F012151310927
S1133E202817390729F4BC0180EF94E06CCF08957A
S1133E3089E00895FC0101900020E9F79F012151D8
S1133E4031092817390729F4BC018FEF94E05BCFBF
S1133E50089589E00895FC0101900020E9F79F018D
S1133E60215231092817390729F4BC018EE095E065
S1133E704ACF089589E0089560E070E08DE495E00C
S1133E8042CF08950F931F93E82FF0E0EE0FFF1F2A
S1133E90E95DF84F6081718186E595E034DF811139
S1133EA014C008E215E020E030E04DE250E067E4A1
S1133EB077E18091BE169091BF160E94500B882323
S1133EC021F087E497E1AADE03C087E497E1A6DE48
S1133ED01F910F9108950F931F93CF93DF931F9218
S1133EE0CDB7DEB7DB0111969C911197953108F09F
S1133EF0B4C0992381F160E070E0272F30E0462FB1
S1133F0050E0FD01E40FF51F928192959F709A3065
S1133F1010F0995C01C0905DF901E852F94E90836C
S1133F202F5F3F4FFD01E40FF51F92819F70492FD2
S1133F3050E04A30510514F0995C01C0905DF901DC
S1133F40E852F94E90837E5F6F5F11969C911197B2
S1133F50691798F201C070E0E72FF0E0E852F94EDB
S1133F6010824C91811103C08FE595E002C081E677
S1133F7095E028ED36E13F932F931F924F939F9343
S1133F808F9385E695E09F938F938AE197E19F93C2
S1133F908F930E947E2A60E070E08AE197E1B3DEAD
S1133FA00FB6F894DEBF0FBECDBF811159C008E231
S1133FB015E020E030E04DE250E067E477E18091E5
S1133FC0BE169091BF160E94500B882309F447C077
S1133FD087E497E123DE8E3009F042C087E08983CD
S1133FE08091BC169091BD16892BA9F1BE016F5F1B
S1133FF07F4F87E497E168D18093C216E981F0E0AE
S1134000E95BF84EDF010D900020E9F71197AE1B34
S1134010BF0BAA2391F0BB27CD0101979C0112F499
S11340202F5F3F4F359527952093C316AF014F5F00
S11340305F4F64E184EC96E173D101E010E020E08D
S113404030E046E150E062EC76E18091BC1690915C
S1134050BD160E944D0A8EE003C084E101C080E0D9
S11340600F90DF91CF911F910F910895813019F036
S113407065E775E002C06EE476E089E795E043CE3B
S113408008959F938F938AEA95E09F938F938AE193
S113409097E19F938F930E947E2A60E070E08AE10B
S11340A097E131DE0F900F900F900F900F900F90CB
S11340B008952F923F924F925F926F927F928F92C8
S11340C09F92AF92BF92CF92DF92EF92FF920F93A3
S11340D01F93CF93DF93CDB7DEB7A0970FB6F894B5
S11340E0DEBF0FBECDBF67ED75E083EE95E03CDD2E
S11340F095DD8111A3C080E2E2E2F2E0DE011196D7
S113410001900D928A95E1F79E012F5F3F4F69015F
S1134110E12CF12C0F2EFFEEAF2EF5E0BF2EF02D8B
S11341200AE117E10F2EF8E04F2EF6E05F2EF02D96
S11341300F2EFFE18F2EF6E09F2EF02D0F2EF9E3C8
S11341406F2EF6E07F2EF02D3E2C2F2CFF92EF9257
S1134150BF92AF921F930F930E947E2A60E070E09B
S1134160C80102DD5BDD0F900F900F900F900F9050
S11341700F90811163C032E03E15E8F4F6018381AB
S11341808F9382818F9381818F9380818F93FF920C
S1134190EF925F924F921F930F930E947E2A60E0EA
S11341A070E0C801E1DC3ADD0FB6F894DEBF0FBE63
S11341B0CDBF811143C02F923F929F928F921F9344
S11341C00F930E947E2A60E070E0C801CDDC26DDFA
S11341D00F900F900F900F900F900F9081112EC0A1
S11341E02F923F927F926F921F930F930E947E2A89
S11341F060E070E0C801B8DC11DD0F900F900F9003
S11342000F900F900F90811119C03FEFE31AF30A3A
S113421084E0C80ED11C98E0E916F10409F094CFAB
S113422060E070E081E596E09FDCF8DC811106C077
S113423060E070E082E696E097DCF0DCA0960FB6D2
S1134240F894DEBF0FBECDBFDF91CF911F910F91C8
S1134250FF90EF90DF90CF90BF90AF909F908F90A2
S11342607F906F905F904F903F902F900895EF92C2
S1134270FF920F931F93CF93DF93EC018B017A018D
S113428081E0F4DE81110DC0CE01D4DD811109C0BD
S1134290C801E1DD811105C0C701BBDD811101C089
S11342A0EBDDDF91CF911F910F91FF90EF90089577
S11342B090E0FC01EE0FFF1F8E0F9F1FFC01E55DD8
S11342C0F84F818192810895DC01009729F1FB0167
S11342D02081FC0101900020E9F73197E81BF90BDC
S11342E0822F90E0E817F907C8F080E008C0880F33
S11342F0382F330F330F830F8053890F2F5FFD0146
S1134300E20FF11D908130ED390F3A3010F4911124
S1134310EECFFB012083089580E0089580E00895A6
S11343200F931F93CF93DF93DC01EA012097E1F110
S1134330FA0101900020E9F73197E41BF50B32975D
S113434010F532C08D01040F151F30E0AE01420F8D
S1134350531FFA019081913428F09753592F5295A5
S1134360507F03C0592F5295507F2C0F3D1FF901E8
S11343709181913410F0975301C09053950FF80137
S113438090838F5F01C080E0282F220F482F50E0D8
S1134390FE0101900020E9F73197EC1BFD0B4E174D
S11343A05F0710F48613CECFDF91CF911F910F9149
S11343B008952F923F924F925F926F927F928F92C5
S11343C09F92AF92CF92EF92FF920F931F93CF934E
S11343D0DF93CDB7DEB7F82E2A013B0188E090E0E9
S11343E0C6D68C018F2D90E0FC01EE0FFF1FEC5818
S11343F0F84E118300830115110509F464C0880F78
S1134400991FFC01E55FFD4F80819181D8018D9357
S11344109C938C2D90E0880F991F880F991FA7D625
S11344201C0186E090E0A3D67C014C2DB10159D645
S1134430F801F582E4828A2D90E0880F991F880F95
S1134440991F95D61C0186E090E091D67C014A2DF7
S1134450B10147D6D8011396FC92EE9212971796A3
S11344609C928E921697FFB6F894ED91FC91119759
S113447036978081826080838D909C90C301B201C5
S1134480BAD920E030E040E051E443DA9B01AC01CA
S113449060E074E284E79BE415D920E030E040E872
S11344A05FE3ABD87CD9F40132976083D801ED91F6
S11344B0FC911197359788E98083ED91FC913497AD
S11344C086E08083FFBEC801DF91CF911F910F91D9
S11344D0FF90EF90CF90AF909F908F907F906F90D0
S11344E05F904F903F902F900895CF93DF93DC011E
S11344F0892B01F11296ED91FC911397938182819E
S11345002581981B922384819817B1F08381269585
S11345102823C081D181C20FD11D68838F5F95810B
S113452089238383ED91FC91359780818062808318
S113453080E003C081E001C082E0DF91CF91089563
S1134540EF92FF920F931F93CF93DF937C01009719
S113455009F441C0DC011296ED91FC91139793810B
S11345608281981B858198238481891B8617A8F1F1
S1134570662341F1842F952FDC016150462F50E0D2
S11345804F5F5F4F480F591FE701EA81FB81938119
S113459082812581981B92238481981779F08C91CC
S11345A0938126952923608171818B01020F111D4E
S11345B0E80188839F5F8581982393831196A417CC
S11345C0B50711F7D701ED91FC9135978081806291
S11345D0808380E003C081E001C082E0DF91CF915D
S11345E01F910F91FF90EF9008950097D1F0DC0197
S11345F01496ED91FC91159793818281981799F007
S11346009281858186958923A081B181A80FB11DEE
S11346108C91DB018C939F5F85819823928380E04A
S1134620089581E0089583E008951F920F920FB6D4
S11346300F9211240BB60F922F933F934F935F93D6
S11346406F937F938F939F93AF93BF93CF93DF9396
S1134650EF93FF93A0917417B0917517109711F110
S11346606091C6001496ED91FC9115979381828117
S11346702581981B92238481981761F08381269564
S11346802823C081D181C20FD11D68838F5F95819A
S1134690892383831696ED91FC911797309711F037
S11346A0CD011995FF91EF91DF91CF91BF91AF911A
S11346B09F918F917F916F915F914F913F912F9136
S11346C00F900BBE0F900FBE0F901F9018951F9266
S11346D00F920FB60F9211240BB60F922F938F9354
S11346E09F93AF93BF93EF93FF93E0917417F0916F
S11346F075173097B9F00280F381E02D93818281A0
S11347009817B1F092818581282F26952923A081BD
S1134710B181A20FB11D2C919F5F892382832093C5
S1134720C6000BC0E1ECF0E080818F7D808305C082
S1134730E1ECF0E080818F7D8083FF91EF91BF9168
S1134740AF919F918F912F910F900BBE0F900FBE41
S11347500F901F9018951F920F920FB60F9211246D
S11347600BB60F922F933F934F935F936F937F9367
S11347708F939F93AF93BF93CF93DF93EF93FF9365
S1134780A0917617B0917717109711F16091CE0030
S11347901496ED91FC911597938182812581981B44
S11347A092238481981761F0838126952823C08100
S11347B0D181C20FD11D68838F5F95818923838343
S11347C01696ED91FC911797309711F0CD0119953C
S11347D0FF91EF91DF91CF91BF91AF919F918F9115
S11347E07F916F915F914F913F912F910F900BBEED
S11347F00F900FBE0F901F9018951F920F920FB637
S11348000F9211240BB60F922F938F939F93AF9314
S1134810BF93EF93FF93E0917617F091771730975A
S1134820B9F00280F381E02D938182819817B1F071
S113483092818581282F26952923A081B181A20FF9
S1134840B11D2C919F5F892382832093CE000BC0DE
S1134850E9ECF0E080818F7D808305C0E9ECF0E035
S113486080818F7D8083FF91EF91BF91AF919F9164
S11348708F912F910F900BBE0F900FBE0F901F9032
S113488018951F920F920FB60F9211240BB60F9228
S11348902F933F934F935F936F937F938F939F9344
S11348A0AF93BF93CF93DF93EF93FF93A0917817C8
S11348B0B0917917109711F16091D6001496ED918B
S11348C0FC911597938182812581981B9223848181
S11348D0981761F0838126952823C081D181C20F66
S11348E0D11D68838F5F9581892383831696ED910B
S11348F0FC911797309711F0CD011995FF91EF9125
S1134900DF91CF91BF91AF919F918F917F916F91E3
S11349105F914F913F912F910F900BBE0F900FBE5F
S11349200F901F9018951F920F920FB60F9211249B
S11349300BB60F922F938F939F93AF93BF93EF93E5
S1134940FF93E0917817F09179173097B9F00280CE
S1134950F381E02D938182819817B1F09281858152
S1134960282F26952923A081B181A20FB11D2C9156
S11349709F5F892382832093D6000BC0E1EDF0E092
S113498080818F7D808305C0E1EDF0E080818F7DA3
S11349908083FF91EF91BF91AF919F918F912F9160
S11349A00F900BBE0F900FBE0F901F9018951F9283
S11349B00F920FB60F9211240BB60F922F933F93C1
S11349C04F935F936F937F938F939F93AF93BF9313
S11349D0CF93DF93EF93FF93A0917A17B0917B1756
S11349E0109711F1609136011496ED91FC91159791
S11349F0938182812581981B92238481981761F089
S1134A00838126952823C081D181C20FD11D68835B
S1134A108F5F9581892383831696ED91FC91179777
S1134A20309711F0CD011995FF91EF91DF91CF915E
S1134A30BF91AF919F918F917F916F915F914F91B2
S1134A403F912F910F900BBE0F900FBE0F901F90B0
S1134A5018951F920F920FB60F9211240BB60F9256
S1134A602F938F939F93AF93BF93EF93FF93E09113
S1134A707A17F0917B173097B9F00280F381E02D1B
S1134A80938182819817B1F092818581282F269590
S1134A902923A081B181A20FB11D2C919F5F89238D
S1134AA08283209336010BC0E1E3F1E080818F7DA6
S1134AB0808305C0E1E3F1E080818F7D8083FF91F5
S1134AC0EF91BF91AF919F918F912F910F900BBE5A
S1134AD00F900FBE0F901F901895CF93DF931F92E6
S1134AE0CDB7DEB7BE016F5F7F4F80917C17909189
S1134AF07D177BDD8111F6CF898190E00F90DF91E6
S1134B00CF910895682F80917C1790917D17EDDCEB
S1134B1080E090E008958F929F92AF92CF92EF92AF
S1134B200F93812C912C6894AA24A7F86894CC2420
S1134B30C7F8E12C00E023E040E051EE60E070E0D3
S1134B4038DC90937D1780937C17EDEAF7E183E1DD
S1134B5092E091838083938382830F91EF90CF902F
S1134B60AF909F908F90089590E0FC01EE0FFF1F8F
S1134B70E80FF91FEE0FFF1FE258F84E23812111B1
S1134B801FC09C01220F331FF901E80FF91FEE0F1C
S1134B90FF1FE258F84EA081B1814C91F901E80F52
S1134BA0F91FEE0FFF1FE258F84E81E090E00280FB
S1134BB002C0880F991F0A94E2F7842B8C930895FE
S1134BC0FC01EE0FFF1FDF01A80FB91FAA0FBB1FC7
S1134BD0A258B84E0D90BC91A02D2C91E80FF91F4E
S1134BE0EE0FFF1FE258F84E81E090E0028002C011
S1134BF0880F991F0A94E2F7809582238C93089575
S1134C0090E0FC01EE0FFF1FE80FF91FEE0FFF1FEE
S1134C10E258F84E2381211120C09C01220F331F3A
S1134C20F901E80FF91FEE0FFF1FE258F84EA081BB
S1134C30B1814C91F901E80FF91FEE0FFF1FE25803
S1134C40F84E81E090E0028002C0880F991F0A9418
S1134C50E2F7809584238C930895FC01EE0FFF1FE7
S1134C60DF01A80FB91FAA0FBB1FA258B84E0D90A1
S1134C70BC91A02D2C91E80FF91FEE0FFF1FE258F5
S1134C80F84E81E090E0028002C0880F991F0A94D8
S1134C90E2F7822B8C930895CF93DF9390E0FC018D
S1134CA0EE0FFF1FDF01A80FB91FAA0FBB1FA258E9
S1134CB0B84ECD91DC911197488121E030E01296F5
S1134CC00C90129702C0220F331F0A94E2F7242794
S1134CD02883FD0181E08483DF91CF910895CF93F0
S1134CE0DF9390E0FC01EE0FFF1FDF01A80FB91F57
S1134CF0AA0FBB1FA258B84ECD91DC9111974881E1
S1134D0021E030E012960C90129702C0220F331F5C
S1134D100A94E2F724272883FD0182E08483DF914B
S1134D20CF910895282F30E0F901EE0FFF1FE20F15
S1134D30F31FEE0FFF1FE258F84E93E0948360CF09
S1134D400895282F30E0F901EE0FFF1FE20FF31F43
S1134D50EE0FFF1FE258F84E94E0948305CF0895B8
S1134D6090E0FC01EE0FFF1FDF01A80FB91FAA0F8F
S1134D70BB1FA258B84E26E015962C931597FD013B
S1134D801482089590E0FC01EE0FFF1FDF01A80FCD
S1134D90B91FAA0FBB1FA258B84E15961C9215979F
S1134DA0FD01148208958091A41781110CC08CE038
S1134DB08093B8008FEF8093BB0084E08093BC00A5
S1134DC081E08093A4170895AF92BF92CF92DF92AF
S1134DD0EF92FF920F931F93CF93DF93A82EB62EDB
S1134DE069017A0184E090E0C2D1EC01892B61F180
S1134DF0A88281E0B81212C0C701B60120EA36E8E1
S1134E0041E050E08AD1DA01C9014097A109B10912
S1134E10B695A79597958795898311C0C701B60163
S1134E2020E83AE146E050E078D1DA01C901409740
S1134E30A109B109B695A7959795879589831B8391
S1134E400A838C2F9D2F02C080E090E0DF91CF91E8
S1134E501F910F91FF90EF90DF90CF90BF90AF9094
S1134E6008958091BC0081700895FF920F931F9361
S1134E70CF93DF930097D1F14A30D0F5F42E8B0114
S1134E80EC01EFDF811136C080919717909198174C
S1134E90C817D90741F087DF89818093B800D09380
S1134EA09817C093971781E08F0D80939917888185
S1134EB0880F80939A17FF2089F0F801ABE9B7E1D6
S1134EC04FEF4F0D642F70E0CB010196B801680FCE
S1134ED0791F81918D93E617F707D9F788EF8093AF
S1134EE0210285EA8093BC0084E005C086E003C00B
S1134EF087E001C082E0DF91CF911F910F91FF9075
S1134F0008951F93CF93DF93009729F16B3028F511
S1134F10162FEC01A6DF811122C080919717909182
S1134F209817C817D90741F03EDF89818093B800EC
S1134F30D0939817C0939717109399178881880F67
S1134F40816080939A1788EF8093210285EA809389
S1134F50BC0085E005C086E003C087E001C082E0B4
S1134F60DF91CF911F9108951F920F920FB60F9268
S1134F7011240BB60F922F933F934F935F936F932C
S1134F807F938F939F93AF93BF93EF93FF93E0919E
S1134F90B9008E2F90E0FC013897E135F10508F057
S1134FA075C08827E458FF4F8F4FD9C010929617C9
S1134FB0E091961780919917E81770F481E08E0FAD
S1134FC080939617F0E0E656F84E80818093BB00FC
S1134FD085E88093BC0072C084E98093BC00809112
S1134FE0971790919817DC011296ED91FC91139705
S1134FF0309709F463C020E040E050E064E0199584
S11350005DC0E091961781E08E0F80939617809192
S1135010BB00F0E0E656F84E80838091B9008034FE
S113502011F4109296172091961730E080919917F9
S113503090E001972817390724F485EC8093BC008D
S11350403DC085E88093BC0039C08091BB00E091ED
S11350509617F0E0E656F84E808384E98093BC000E
S11350608091971790919817DC011296ED91FC911D
S11350701397309719F1209199174AE957E165E0A0
S113508019951CC085EA8093BC0018C08091B900B2
S11350908093210284E08093BC00809197179091C3
S11350A09817DC011296ED91FC911397309731F02B
S11350B020E040E050E0609121021995FF91EF91CA
S11350C0BF91AF919F918F917F916F915F914F911C
S11350D03F912F910F900BBE0F900FBE0F901F901A
S11350E01895FC01411101C063D1842F90E09C010B
S11350F02150310982239323892B09F059D1413856
S113510008F056D1128213824483440F41504583E0
S11351107183608380E090E00895A1E21A2EAA1BB7
S1135120BB1BFD010DC0AA1FBB1FEE1FFF1FA21753
S1135130B307E407F50720F0A21BB30BE40BF50B50
S1135140661F771F881F991F1A9469F760957095D9
S1135150809590959B01AC01BD01CF010895EE0FA0
S1135160FF1F881F8BBF0790F691E02D19940F93B2
S11351701F93CF93DF938230910510F482E090E087
S1135180E091AB17F091AC1720E030E0A0E0B0E084
S1135190309719F1408151810281138148175907D1
S11351A0C8F08417950769F4109731F012960C93A0
S11351B0129713961C9327C00093AB171093AC1748
S11351C022C02115310519F04217530718F49A012A
S11351D0BD01EF01DF01F801DBCF21153105F9F045
S11351E0281B390B2430310580F48A819B81611599
S11351F0710521F0FB019383828304C09093AC1763
S11352008093AB17FE01329644C0FE01E20FF31FF8
S11352108193919322503109398328833AC0209194
S1135220A9173091AA17232B41F42091020230913F
S113523003023093AA172093A917209100023091FA
S113524001022115310541F42DB73EB74091040206
S113525050910502241B350BE091A917F091AA1770
S1135260E217F307A0F42E1B3F0B2817390778F039
S1135270AC014E5F5F4F2417350748F04E0F5F1F98
S11352805093AA174093A9178193919302C0E0E029
S1135290F0E0CF01DF91CF911F910F910895CF934B
S11352A0DF93009709F481C0FC01329713821282C4
S11352B0A091AB17B091AC17109781F42081318184
S11352C0820F931F2091A9173091AA172817390725
S11352D051F5F093AA17E093A91767C0ED0120E0F8
S11352E030E0CE17DF0740F44A815B819E0141150F
S11352F05105F1F0EA01F5CFD383C2834081518196
S1135300840F951FC817D90759F488819981840F90
S1135310951F0296918380838A819B8193838283E4
S11353202115310529F4F093AC17E093AB173DC078
S1135330E901FB83EA8349915991C40FD51FEC1706
S1135340FD0761F480819181840F951F0296E90124
S113535099838883828193819B838A83E0E0F0E050
S113536012968D919C911397009719F0FD01DC0121
S1135370F7CF8D919C9111979D012E5F3F4F820F26
S1135380931F2091A9173091AA172817390769F498
S1135390309729F41092AC171092AB1702C0138205
S11353A01282B093AA17A093A917DF91CF91089501
S11353B081E090E0F8947DC3FB01DC0102C0019020
S11353C00D9241505040D8F70895DC0101C06D930F
S11353D041505040E0F70895FB0151915523B1F03D
S11353E0BF01DC01052E4D91442369F010D0D9F79B
S11353F0CD010190002049F04D91411108D0C9F32D
S1135400FB014111EECF81E090E001970895402522
S113541039F0403229F440294B57465E08F018947D
S11354200895FB01DC010D900020E9F7119701902C
S11354300D920020E1F70895FB01DC0101900D922B
S11354400020E1F70895FB01DC014150504088F051
S11354508D9181341CF08B350CF4805E6191613444
S11354601CF06B350CF4605E861B611171F3990BB3
S11354700895881BFCCFCF93DF93CDB7DEB7AE0181
S11354804A5F5F4FFA0161917191AF018091AF174B
S11354909091B01761D0DF91CF9108950F931F932E
S11354A0CF93DF93E091AF17F091B017238121FFE1
S11354B01BC08C01D0E0C0E0F80181918F016091A4
S11354C0AF177091B017DB011896ED91FC91199705
S11354D0882331F01995892B79F3DFEFCFEFECCFE7
S11354E08AE01995892B19F08FEF9FEF02C08D2F59
S11354F09C2FDF91CF911F910F9108950F931F93CC
S1135500CF93DF93CDB7DEB72E970FB6F894DEBFF7
S11355100FBECDBF0E891F8986E08C831A83098351
S11355208FEF9FE79E838D83AE01465E5F4F688D4C
S1135530798DCE01019610D0EF81F885E00FF11F2F
S113554010822E960FB6F894DEBF0FBECDBFDF914A
S1135550CF911F910F9108952F923F924F925F9296
S11355606F927F928F929F92AF92BF92CF92DF926F
S1135570EF92FF920F931F93CF93DF93CDB7DEB7D4
S11355802B970FB6F894DEBF0FBECDBF6C017B0125
S11355908A01FC0117821682838181FFBFC1CE017B
S11355A001963C01F6019381F70193FD859193FFE8
S11355B081917F01882309F4ADC1853239F493FDCB
S11355C0859193FF81917F01853221F4B60190E0AA
S11355D0D6D1E8CF912C212C312CFFE1F315D8F052
S11355E08B3279F038F4803279F08332A1F4232DB0
S11355F020611DC08D3261F0803369F4232D216058
S113560016C0832D8260382EE32DE4603E2E2AC01E
S1135610F32DF8601DC037FC2DC020ED280F2A3073
S113562040F08E32B9F436FC75C1232D2064322E3D
S113563019C036FE06C08AE0989E200D1124922ED1
S113564011C0EAE02E9E200D1124222EF32DF062CB
S11356503F2E08C08C3621F4832D8068382E02C07A
S1135660883641F4F70193FD859193FF81917F0181
S11356708111B3CF982F9F7D9554933028F40C5FFC
S11356801F4F9FE399830DC0833631F0833771F048
S1135690833509F055C020C0F801808189830E5FED
S11356A01F4F88248394912C530112C02801F2E0E7
S11356B04F0E511CF801A080B18036FE03C0692D45
S11356C070E002C06FEF7FEFC5014ED14C01820143
S11356D0F32DFF773F2E15C0280122E0420E511C06
S11356E0F801A080B18036FE03C0692D70E002C0CD
S11356F06FEF7FEFC5012DD14C01F32DF0683F2EE4
S1135700820133FC19C0822D90E088169906A0F41A
S1135710B60180E290E033D12A94F5CFF50137FC4D
S1135720859137FE81915F01B60190E028D1211067
S11357302A9421E0821A91088114910479F7E1C036
S1135740843611F0893639F5F80137FE07C06081D7
S11357507181828193810C5F1F4F08C060817181C8
S1135760072E000C880B990B0E5F1F4FF32DFF764D
S11357703F2E97FF09C090958095709561957F4F56
S11357808F4F9F4FF0683F2E2AE030E0A30133D1C2
S1135790882E861844C0853731F4232D2F7EB22EEF
S11357A02AE030E025C0932D997FB92E8F36C1F0C1
S11357B018F4883579F0AEC0803719F0883721F0B5
S11357C0A9C0E92FE061BE2EB4FE0DC0FB2DF4602C
S11357D0BF2E09C034FE0AC0292F2660B22E06C08F
S11357E028E030E005C020E130E002C020E132E0F2
S11357F0F801B7FE07C060817181828193810C5FDB
S11358001F4F06C06081718180E090E00E5F1F4FE2
S1135810A301F1D0882E8618FB2DFF773F2E36FE8C
S11358200DC0232D2E7FA22E891458F434FE0BC0F4
S113583032FC09C0832D8E7EA82E05C0B82CA32C63
S113584003C0B82C01C0B92CA4FE0FC0FE01E80DA2
S1135850F11D8081803321F49A2D997EA92E09C0EF
S1135860A2FE06C0B394B39404C08A2D867809F0CE
S1135870B394A3FC10C0A0FE06C0B21480F4280C9C
S1135880922C9B180DC0B21458F4B60180E290E03B
S113589076D0B394F8CFB21418F42B1802C0982C15
S11358A0212CA4FE0FC0B60180E390E068D0A2FED4
S11358B016C0A1FC03C088E790E002C088E590E030
S11358C0B6010CC08A2D867851F0A1FE02C08BE28D
S11358D001C080E2A7FC8DE2B60190E050D08914AB
S11358E030F4B60180E390E04AD09A94F8CF8A94D9
S11358F0F301E80DF11D8081B60190E040D08110E4
S1135900F6CF222009F44ECEB60180E290E037D0E3
S11359102A94F7CFF6018681978102C08FEF9FEF1B
S11359202B960FB6F894DEBF0FBECDBFDF91CF919B
S11359301F910F91FF90EF90DF90CF90BF90AF90A9
S11359409F908F907F906F905F904F903F902F909B
S11359500895FC010590615070400110D8F78095BE
S113596090958E0F9F1F0895FC0161507040019027
S11359700110D8F7809590958E0F9F1F08950F936F
S11359801F93CF93DF93FB01238121FD03C08FEF8E
S11359909FEF2CC022FF16C0468157812481358198
S11359A04217530744F4A081B1819D012F5F3F4FFB
S11359B0318320838C93268137812F5F3F4F378338
S11359C0268314C08B01EC01FB010084F185E02DDA
S11359D01995892BE1F6D80116968D919C9117970C
S11359E0019617969C938E931697CE01DF91CF91D3
S11359F01F910F910895FA01AA27283051F12031FF
S1135A0081F1E8946F936E7F6E5F7F4F8F4F9F4F4E
S1135A10AF4FB1E03ED0B4E03CD0670F781F891F90
S1135A209A1FA11D680F791F8A1F911DA11D6A0F5E
S1135A30711D811D911DA11D20D009F468943F9111
S1135A402AE0269F11243019305D3193DEF6CF0110
S1135A500895462F4770405D4193B3E00FD0C9F7D6
S1135A60F6CF462F4F70405D4A3318F0495D31FD43
S1135A704052419302D0A9F7EACFB4E0A695979596
S1135A80879577956795BA95C9F70097610571056C
S1135A9008959B01AC010A2E0694579547953795B6
S1135AA02795BA95C9F7620F731F841F951FA01D10
S1095AB00895F894FFCFF5
S1135AB60000B31720000900400040C600CE00D6FF
S1135AC6003601000000030000000082256D250059
S1135AD600F8A027BE33E034C1332042C43360E566
S1135AE6AE33A0F2B133E0FFB433200DB833601AFD
S1135AF6BB3349444C4500546D7220537663006BA6
S1135B066F6D6D6572207669206865722069206CF8
S1135B166F72612068616E646C6572207461736B68
S1135B263F00466163746F72795265736574203EF3
S1135B3625733C0A00436F6E666967757265207447
S1135B466F204555383638203E25733C0A00476594
S1135B5674204857455549203E25733C3A20257301
S1135B660A00536574204465764555493A202573E1
S1135B76203E25733C0A00443935314443383741C5
S1135B86393238453730423143324544443131366F
S1135B9645383733353246003245323035353445AB
S1135BA6453042453732363500536574204F5441EB
S1135BB641204964656E7469747920617070455535
S1135BC6493A2573206170704B45593A2573206410
S1135BD665764555493A2573203E25733C0A00539C
S1135BE6617665206D6163203E25733C0A0053652A
S1135BF6742041646170746976652044617461201F
S1135C06526174653A204F4E203E25733C0A005378
S1135C1665742052656365697665722044656C61B6
S1135C26793A202564206D73203E25733C0A004A88
S1135C366F696E204E6574776F726B205472696556
S1135C46734C6566743A2564203E25733C0A0055F8
S1135C56706C6F6164204D657373616765203E25C2
S1135C66733C0A004C5248616E640054656D70655D
S1135C767261747572652077616B657570206572E3
S1135C86726F723A2025640A0054656D70657261FC
S1135C9674757265206D65617375726520657272BF
S1135CA66F723A2025640A0054656D7065726174DA
S1135CB675723A20256643B0200A0054656D7065F6
S1135CC67261747572653A2025662043B00A0063D2
S1135CD66F756C64206E6F7420616C6C6F63617495
S1135CE665206D656D6F727920696E2074657272B8
